{
  "contractName": "Project",
  "abi": [
    {
      "inputs": [
        {
          "internalType": "string",
          "name": "_name",
          "type": "string"
        },
        {
          "internalType": "string",
          "name": "_symbol",
          "type": "string"
        },
        {
          "internalType": "uint256",
          "name": "_tokenPrice",
          "type": "uint256"
        },
        {
          "internalType": "uint256",
          "name": "_totalSupply",
          "type": "uint256"
        },
        {
          "internalType": "address",
          "name": "_regServiceContract",
          "type": "address"
        },
        {
          "internalType": "address",
          "name": "_tmyTokenContract",
          "type": "address"
        }
      ],
      "stateMutability": "nonpayable",
      "type": "constructor"
    },
    {
      "anonymous": false,
      "inputs": [
        {
          "indexed": true,
          "internalType": "address",
          "name": "owner",
          "type": "address"
        },
        {
          "indexed": true,
          "internalType": "address",
          "name": "spender",
          "type": "address"
        },
        {
          "indexed": false,
          "internalType": "uint256",
          "name": "value",
          "type": "uint256"
        }
      ],
      "name": "Approval",
      "type": "event"
    },
    {
      "anonymous": false,
      "inputs": [
        {
          "indexed": true,
          "internalType": "address",
          "name": "from",
          "type": "address"
        },
        {
          "indexed": true,
          "internalType": "address",
          "name": "to",
          "type": "address"
        },
        {
          "indexed": false,
          "internalType": "uint256",
          "name": "value",
          "type": "uint256"
        }
      ],
      "name": "Transfer",
      "type": "event"
    },
    {
      "inputs": [
        {
          "internalType": "address",
          "name": "",
          "type": "address"
        }
      ],
      "name": "balanceOf",
      "outputs": [
        {
          "internalType": "uint256",
          "name": "",
          "type": "uint256"
        }
      ],
      "stateMutability": "view",
      "type": "function",
      "constant": true
    },
    {
      "inputs": [],
      "name": "decimals",
      "outputs": [
        {
          "internalType": "uint256",
          "name": "",
          "type": "uint256"
        }
      ],
      "stateMutability": "view",
      "type": "function",
      "constant": true
    },
    {
      "inputs": [],
      "name": "name",
      "outputs": [
        {
          "internalType": "string",
          "name": "",
          "type": "string"
        }
      ],
      "stateMutability": "view",
      "type": "function",
      "constant": true
    },
    {
      "inputs": [],
      "name": "owner",
      "outputs": [
        {
          "internalType": "address",
          "name": "",
          "type": "address"
        }
      ],
      "stateMutability": "view",
      "type": "function",
      "constant": true
    },
    {
      "inputs": [],
      "name": "projectCanceled",
      "outputs": [
        {
          "internalType": "bool",
          "name": "",
          "type": "bool"
        }
      ],
      "stateMutability": "view",
      "type": "function",
      "constant": true
    },
    {
      "inputs": [],
      "name": "purchaseLimit",
      "outputs": [
        {
          "internalType": "uint256",
          "name": "",
          "type": "uint256"
        }
      ],
      "stateMutability": "view",
      "type": "function",
      "constant": true
    },
    {
      "inputs": [],
      "name": "regServiceContract",
      "outputs": [
        {
          "internalType": "address",
          "name": "",
          "type": "address"
        }
      ],
      "stateMutability": "view",
      "type": "function",
      "constant": true
    },
    {
      "inputs": [],
      "name": "symbol",
      "outputs": [
        {
          "internalType": "string",
          "name": "",
          "type": "string"
        }
      ],
      "stateMutability": "view",
      "type": "function",
      "constant": true
    },
    {
      "inputs": [],
      "name": "tmyTokenContract",
      "outputs": [
        {
          "internalType": "address",
          "name": "",
          "type": "address"
        }
      ],
      "stateMutability": "view",
      "type": "function",
      "constant": true
    },
    {
      "inputs": [],
      "name": "tokenPrice",
      "outputs": [
        {
          "internalType": "uint256",
          "name": "",
          "type": "uint256"
        }
      ],
      "stateMutability": "view",
      "type": "function",
      "constant": true
    },
    {
      "inputs": [],
      "name": "tokensSold",
      "outputs": [
        {
          "internalType": "uint256",
          "name": "",
          "type": "uint256"
        }
      ],
      "stateMutability": "view",
      "type": "function",
      "constant": true
    },
    {
      "inputs": [],
      "name": "totalShareholders",
      "outputs": [
        {
          "internalType": "uint256",
          "name": "",
          "type": "uint256"
        }
      ],
      "stateMutability": "view",
      "type": "function",
      "constant": true
    },
    {
      "inputs": [],
      "name": "totalSupply",
      "outputs": [
        {
          "internalType": "uint256",
          "name": "",
          "type": "uint256"
        }
      ],
      "stateMutability": "view",
      "type": "function",
      "constant": true
    },
    {
      "inputs": [],
      "name": "tokensRemaining",
      "outputs": [
        {
          "internalType": "uint256",
          "name": "",
          "type": "uint256"
        }
      ],
      "stateMutability": "view",
      "type": "function",
      "constant": true
    },
    {
      "inputs": [
        {
          "internalType": "bool",
          "name": "isCanceled",
          "type": "bool"
        }
      ],
      "name": "cancelSale",
      "outputs": [],
      "stateMutability": "nonpayable",
      "type": "function"
    },
    {
      "inputs": [
        {
          "internalType": "uint256",
          "name": "investmentAmount",
          "type": "uint256"
        }
      ],
      "name": "buy",
      "outputs": [],
      "stateMutability": "nonpayable",
      "type": "function"
    },
    {
      "inputs": [],
      "name": "claimBack",
      "outputs": [],
      "stateMutability": "nonpayable",
      "type": "function"
    },
    {
      "inputs": [
        {
          "internalType": "address",
          "name": "receiver",
          "type": "address"
        },
        {
          "internalType": "uint256",
          "name": "amount",
          "type": "uint256"
        }
      ],
      "name": "transfer",
      "outputs": [
        {
          "internalType": "bool",
          "name": "",
          "type": "bool"
        }
      ],
      "stateMutability": "nonpayable",
      "type": "function"
    },
    {
      "inputs": [
        {
          "internalType": "address",
          "name": "delegate",
          "type": "address"
        },
        {
          "internalType": "uint256",
          "name": "numTokens",
          "type": "uint256"
        }
      ],
      "name": "approve",
      "outputs": [
        {
          "internalType": "bool",
          "name": "",
          "type": "bool"
        }
      ],
      "stateMutability": "nonpayable",
      "type": "function"
    },
    {
      "inputs": [
        {
          "internalType": "address",
          "name": "_owner",
          "type": "address"
        },
        {
          "internalType": "address",
          "name": "delegate",
          "type": "address"
        }
      ],
      "name": "allowance",
      "outputs": [
        {
          "internalType": "uint256",
          "name": "",
          "type": "uint256"
        }
      ],
      "stateMutability": "view",
      "type": "function",
      "constant": true
    },
    {
      "inputs": [
        {
          "internalType": "address",
          "name": "_owner",
          "type": "address"
        },
        {
          "internalType": "address",
          "name": "buyer",
          "type": "address"
        },
        {
          "internalType": "uint256",
          "name": "amount",
          "type": "uint256"
        }
      ],
      "name": "transferFrom",
      "outputs": [
        {
          "internalType": "bool",
          "name": "",
          "type": "bool"
        }
      ],
      "stateMutability": "nonpayable",
      "type": "function"
    }
  ],
  "bytecode": "0x60806040526012600355600354600a6200001a919062000463565b6032620000289190620004b4565b6004556000600b60006101000a81548160ff0219169083151502179055503480156200005357600080fd5b506040516200287d3803806200287d833981810160405281019062000079919062000748565b336000806101000a81548173ffffffffffffffffffffffffffffffffffffffff021916908373ffffffffffffffffffffffffffffffffffffffff1602179055508560019080519060200190620000d192919062000226565b508460029080519060200190620000ea92919062000226565b5083600581905550600354600a62000103919062000463565b83620001109190620004b4565b60088190555081600b60016101000a81548173ffffffffffffffffffffffffffffffffffffffff021916908373ffffffffffffffffffffffffffffffffffffffff16021790555081600c60006101000a81548173ffffffffffffffffffffffffffffffffffffffff021916908373ffffffffffffffffffffffffffffffffffffffff16021790555080600d60006101000a81548173ffffffffffffffffffffffffffffffffffffffff021916908373ffffffffffffffffffffffffffffffffffffffff16021790555080600e60006101000a81548173ffffffffffffffffffffffffffffffffffffffff021916908373ffffffffffffffffffffffffffffffffffffffff16021790555050505050505062000887565b828054620002349062000851565b90600052602060002090601f016020900481019282620002585760008555620002a4565b82601f106200027357805160ff1916838001178555620002a4565b82800160010185558215620002a4579182015b82811115620002a357825182559160200191906001019062000286565b5b509050620002b39190620002b7565b5090565b5b80821115620002d2576000816000905550600101620002b8565b5090565b7f4e487b7100000000000000000000000000000000000000000000000000000000600052601160045260246000fd5b60008160011c9050919050565b6000808291508390505b600185111562000364578086048111156200033c576200033b620002d6565b5b60018516156200034c5780820291505b80810290506200035c8562000305565b94506200031c565b94509492505050565b6000826200037f576001905062000452565b816200038f576000905062000452565b8160018114620003a85760028114620003b357620003e9565b600191505062000452565b60ff841115620003c857620003c7620002d6565b5b8360020a915084821115620003e257620003e1620002d6565b5b5062000452565b5060208310610133831016604e8410600b8410161715620004235782820a9050838111156200041d576200041c620002d6565b5b62000452565b62000432848484600162000312565b925090508184048111156200044c576200044b620002d6565b5b81810290505b9392505050565b6000819050919050565b6000620004708262000459565b91506200047d8362000459565b9250620004ac7fffffffffffffffffffffffffffffffffffffffffffffffffffffffffffffffff84846200036d565b905092915050565b6000620004c18262000459565b9150620004ce8362000459565b9250817fffffffffffffffffffffffffffffffffffffffffffffffffffffffffffffffff04831182151516156200050a5762000509620002d6565b5b828202905092915050565b6000604051905090565b600080fd5b600080fd5b600080fd5b600080fd5b6000601f19601f8301169050919050565b7f4e487b7100000000000000000000000000000000000000000000000000000000600052604160045260246000fd5b6200057e8262000533565b810181811067ffffffffffffffff82111715620005a0576200059f62000544565b5b80604052505050565b6000620005b562000515565b9050620005c3828262000573565b919050565b600067ffffffffffffffff821115620005e657620005e562000544565b5b620005f18262000533565b9050602081019050919050565b60005b838110156200061e57808201518184015260208101905062000601565b838111156200062e576000848401525b50505050565b60006200064b6200064584620005c8565b620005a9565b9050828152602081018484840111156200066a57620006696200052e565b5b62000677848285620005fe565b509392505050565b600082601f83011262000697576200069662000529565b5b8151620006a984826020860162000634565b91505092915050565b620006bd8162000459565b8114620006c957600080fd5b50565b600081519050620006dd81620006b2565b92915050565b600073ffffffffffffffffffffffffffffffffffffffff82169050919050565b60006200071082620006e3565b9050919050565b620007228162000703565b81146200072e57600080fd5b50565b600081519050620007428162000717565b92915050565b60008060008060008060c087890312156200076857620007676200051f565b5b600087015167ffffffffffffffff81111562000789576200078862000524565b5b6200079789828a016200067f565b965050602087015167ffffffffffffffff811115620007bb57620007ba62000524565b5b620007c989828a016200067f565b9550506040620007dc89828a01620006cc565b9450506060620007ef89828a01620006cc565b93505060806200080289828a0162000731565b92505060a06200081589828a0162000731565b9150509295509295509295565b7f4e487b7100000000000000000000000000000000000000000000000000000000600052602260045260246000fd5b600060028204905060018216806200086a57607f821691505b6020821081141562000881576200088062000822565b5b50919050565b611fe680620008976000396000f3fe608060405234801561001057600080fd5b50600436106101375760003560e01c80637ff9b596116100b8578063a9059cbb1161007c578063a9059cbb1461031e578063bd86c0b61461034e578063c8b081251461036c578063d96a094a1461038a578063dd62ed3e146103a6578063f6545488146103d657610137565b80637ff9b5961461029e5780638da5cb5b146102bc57806395d89b41146102da5780639b8c3e21146102f8578063a8d0dd3b1461030257610137565b806323b872dd116100ff57806323b872dd146101e4578063313ce56714610214578063518ab2a814610232578063521b142a1461025057806370a082311461026e57610137565b806306fdde031461013c578063095ea7b31461015a5780630f8d40301461018a57806318160ddd146101a857806318886657146101c6575b600080fd5b6101446103f4565b60405161015191906115f7565b60405180910390f35b610174600480360381019061016f91906116b2565b610482565b604051610181919061170d565b60405180910390f35b6101926105c4565b60405161019f9190611737565b60405180910390f35b6101b06105ca565b6040516101bd9190611737565b60405180910390f35b6101ce6105d0565b6040516101db9190611737565b60405180910390f35b6101fe60048036038101906101f99190611752565b6105d6565b60405161020b919061170d565b60405180910390f35b61021c610ab3565b6040516102299190611737565b60405180910390f35b61023a610ab9565b6040516102479190611737565b60405180910390f35b610258610abf565b60405161026591906117b4565b60405180910390f35b610288600480360381019061028391906117cf565b610ae5565b6040516102959190611737565b60405180910390f35b6102a6610afd565b6040516102b39190611737565b60405180910390f35b6102c4610b03565b6040516102d191906117b4565b60405180910390f35b6102e2610b27565b6040516102ef91906115f7565b60405180910390f35b610300610bb5565b005b61031c60048036038101906103179190611828565b610dbc565b005b610338600480360381019061033391906116b2565b610e67565b604051610345919061170d565b60405180910390f35b61035661117c565b604051610363919061170d565b60405180910390f35b61037461118f565b6040516103819190611737565b60405180910390f35b6103a4600480360381019061039f9190611855565b6111a6565b005b6103c060048036038101906103bb9190611882565b611461565b6040516103cd9190611737565b60405180910390f35b6103de611538565b6040516103eb91906117b4565b60405180910390f35b60018054610401906118f1565b80601f016020809104026020016040519081016040528092919081815260200182805461042d906118f1565b801561047a5780601f1061044f5761010080835404028352916020019161047a565b820191906000526020600020905b81548152906001019060200180831161045d57829003601f168201915b505050505081565b6000600b60009054906101000a900460ff16156104d4576040517f08c379a00000000000000000000000000000000000000000000000000000000081526004016104cb9061196f565b60405180910390fd5b81600a60003373ffffffffffffffffffffffffffffffffffffffff1673ffffffffffffffffffffffffffffffffffffffff16815260200190815260200160002060008573ffffffffffffffffffffffffffffffffffffffff1673ffffffffffffffffffffffffffffffffffffffff168152602001908152602001600020819055508273ffffffffffffffffffffffffffffffffffffffff163373ffffffffffffffffffffffffffffffffffffffff167f8c5be1e5ebec7d5bd14f71427d1e84f3dd0314c0f7b2291e5b200ac8c7c3b925846040516105b29190611737565b60405180910390a36001905092915050565b60065481565b60085481565b60045481565b6000600b60009054906101000a900460ff1615610628576040517f08c379a000000000000000000000000000000000000000000000000000000000815260040161061f9061196f565b60405180910390fd5b600c60009054906101000a900473ffffffffffffffffffffffffffffffffffffffff1673ffffffffffffffffffffffffffffffffffffffff1663b3154db085856040518363ffffffff1660e01b815260040161068592919061198f565b60206040518083038186803b15801561069d57600080fd5b505afa1580156106b1573d6000803e3d6000fd5b505050506040513d601f19601f820116820180604052508101906106d591906119cd565b6106de57600080fd5b600a60008573ffffffffffffffffffffffffffffffffffffffff1673ffffffffffffffffffffffffffffffffffffffff16815260200190815260200160002060003373ffffffffffffffffffffffffffffffffffffffff1673ffffffffffffffffffffffffffffffffffffffff1681526020019081526020016000205482111561079d576040517f08c379a000000000000000000000000000000000000000000000000000000000815260040161079490611a46565b60405180910390fd5b600960008573ffffffffffffffffffffffffffffffffffffffff1673ffffffffffffffffffffffffffffffffffffffff1681526020019081526020016000205482111561081f576040517f08c379a000000000000000000000000000000000000000000000000000000000815260040161081690611ab2565b60405180910390fd5b81600960008673ffffffffffffffffffffffffffffffffffffffff1673ffffffffffffffffffffffffffffffffffffffff1681526020019081526020016000205461086a9190611b01565b600960008673ffffffffffffffffffffffffffffffffffffffff1673ffffffffffffffffffffffffffffffffffffffff1681526020019081526020016000208190555081600a60008673ffffffffffffffffffffffffffffffffffffffff1673ffffffffffffffffffffffffffffffffffffffff16815260200190815260200160002060003373ffffffffffffffffffffffffffffffffffffffff1673ffffffffffffffffffffffffffffffffffffffff168152602001908152602001600020546109359190611b01565b600a60008673ffffffffffffffffffffffffffffffffffffffff1673ffffffffffffffffffffffffffffffffffffffff16815260200190815260200160002060003373ffffffffffffffffffffffffffffffffffffffff1673ffffffffffffffffffffffffffffffffffffffff1681526020019081526020016000208190555081600960008573ffffffffffffffffffffffffffffffffffffffff1673ffffffffffffffffffffffffffffffffffffffff16815260200190815260200160002054610a009190611b35565b600960008573ffffffffffffffffffffffffffffffffffffffff1673ffffffffffffffffffffffffffffffffffffffff168152602001908152602001600020819055508273ffffffffffffffffffffffffffffffffffffffff168473ffffffffffffffffffffffffffffffffffffffff167fddf252ad1be2c89b69c2b068fc378daa952ba7f163c4a11628f55a4df523b3ef84604051610aa09190611737565b60405180910390a3600190509392505050565b60035481565b60075481565b600d60009054906101000a900473ffffffffffffffffffffffffffffffffffffffff1681565b60096020528060005260406000206000915090505481565b60055481565b60008054906101000a900473ffffffffffffffffffffffffffffffffffffffff1681565b60028054610b34906118f1565b80601f0160208091040260200160405190810160405280929190818152602001828054610b60906118f1565b8015610bad5780601f10610b8257610100808354040283529160200191610bad565b820191906000526020600020905b815481529060010190602001808311610b9057829003601f168201915b505050505081565b6000600960003373ffffffffffffffffffffffffffffffffffffffff1673ffffffffffffffffffffffffffffffffffffffff168152602001908152602001600020541415610c38576040517f08c379a0000000000000000000000000000000000000000000000000000000008152600401610c2f90611bfd565b60405180910390fd5b6000600354600a610c499190611d50565b600554610c569190611dca565b600960003373ffffffffffffffffffffffffffffffffffffffff1673ffffffffffffffffffffffffffffffffffffffff16815260200190815260200160002054610ca09190611dfb565b9050600e60009054906101000a900473ffffffffffffffffffffffffffffffffffffffff1673ffffffffffffffffffffffffffffffffffffffff166323b872dd60008054906101000a900473ffffffffffffffffffffffffffffffffffffffff1633846040518463ffffffff1660e01b8152600401610d2193929190611e55565b602060405180830381600087803b158015610d3b57600080fd5b505af1158015610d4f573d6000803e3d6000fd5b505050506040513d601f19601f82011682018060405250810190610d7391906119cd565b506000600960003373ffffffffffffffffffffffffffffffffffffffff1673ffffffffffffffffffffffffffffffffffffffff1681526020019081526020016000208190555050565b60008054906101000a900473ffffffffffffffffffffffffffffffffffffffff1673ffffffffffffffffffffffffffffffffffffffff163373ffffffffffffffffffffffffffffffffffffffff1614610e4a576040517f08c379a0000000000000000000000000000000000000000000000000000000008152600401610e4190611efe565b60405180910390fd5b80600b60006101000a81548160ff02191690831515021790555050565b6000600b60009054906101000a900460ff1615610eb9576040517f08c379a0000000000000000000000000000000000000000000000000000000008152600401610eb09061196f565b60405180910390fd5b600c60009054906101000a900473ffffffffffffffffffffffffffffffffffffffff1673ffffffffffffffffffffffffffffffffffffffff1663b3154db033856040518363ffffffff1660e01b8152600401610f1692919061198f565b60206040518083038186803b158015610f2e57600080fd5b505afa158015610f42573d6000803e3d6000fd5b505050506040513d601f19601f82011682018060405250810190610f6691906119cd565b610f6f57600080fd5b600960003373ffffffffffffffffffffffffffffffffffffffff1673ffffffffffffffffffffffffffffffffffffffff16815260200190815260200160002054821115610ff1576040517f08c379a0000000000000000000000000000000000000000000000000000000008152600401610fe890611ab2565b60405180910390fd5b81600960003373ffffffffffffffffffffffffffffffffffffffff1673ffffffffffffffffffffffffffffffffffffffff1681526020019081526020016000205461103c9190611b01565b600960003373ffffffffffffffffffffffffffffffffffffffff1673ffffffffffffffffffffffffffffffffffffffff1681526020019081526020016000208190555081600960008573ffffffffffffffffffffffffffffffffffffffff1673ffffffffffffffffffffffffffffffffffffffff168152602001908152602001600020546110ca9190611b35565b600960008573ffffffffffffffffffffffffffffffffffffffff1673ffffffffffffffffffffffffffffffffffffffff168152602001908152602001600020819055508273ffffffffffffffffffffffffffffffffffffffff163373ffffffffffffffffffffffffffffffffffffffff167fddf252ad1be2c89b69c2b068fc378daa952ba7f163c4a11628f55a4df523b3ef8460405161116a9190611737565b60405180910390a36001905092915050565b600b60009054906101000a900460ff1681565b60006007546008546111a19190611b01565b905090565b600b60009054906101000a900460ff16156111f6576040517f08c379a00000000000000000000000000000000000000000000000000000000081526004016111ed9061196f565b60405180910390fd5b60045481101561123b576040517f08c379a000000000000000000000000000000000000000000000000000000000815260040161123290611f90565b60405180910390fd5b6000600554600354600a61124f9190611d50565b8361125a9190611dfb565b6112649190611dca565b9050600854816007546112779190611b35565b11156112b95760075460085461128d9190611b01565b9050600354600a61129e9190611d50565b6005546112ab9190611dca565b816112b69190611dfb565b91505b600e60009054906101000a900473ffffffffffffffffffffffffffffffffffffffff1673ffffffffffffffffffffffffffffffffffffffff166323b872dd3360008054906101000a900473ffffffffffffffffffffffffffffffffffffffff16856040518463ffffffff1660e01b815260040161133893929190611e55565b602060405180830381600087803b15801561135257600080fd5b505af1158015611366573d6000803e3d6000fd5b505050506040513d601f19601f8201168201806040525081019061138a91906119cd565b506000600960003373ffffffffffffffffffffffffffffffffffffffff1673ffffffffffffffffffffffffffffffffffffffff1681526020019081526020016000205414156113ee576001600660008282546113e69190611b35565b925050819055505b80600960003373ffffffffffffffffffffffffffffffffffffffff1673ffffffffffffffffffffffffffffffffffffffff168152602001908152602001600020600082825461143d9190611b35565b9250508190555080600760008282546114569190611b35565b925050819055505050565b6000600b60009054906101000a900460ff16156114b3576040517f08c379a00000000000000000000000000000000000000000000000000000000081526004016114aa9061196f565b60405180910390fd5b600a60008473ffffffffffffffffffffffffffffffffffffffff1673ffffffffffffffffffffffffffffffffffffffff16815260200190815260200160002060008373ffffffffffffffffffffffffffffffffffffffff1673ffffffffffffffffffffffffffffffffffffffff16815260200190815260200160002054905092915050565b600b60019054906101000a900473ffffffffffffffffffffffffffffffffffffffff1681565b600081519050919050565b600082825260208201905092915050565b60005b8381101561159857808201518184015260208101905061157d565b838111156115a7576000848401525b50505050565b6000601f19601f8301169050919050565b60006115c98261155e565b6115d38185611569565b93506115e381856020860161157a565b6115ec816115ad565b840191505092915050565b6000602082019050818103600083015261161181846115be565b905092915050565b600080fd5b600073ffffffffffffffffffffffffffffffffffffffff82169050919050565b60006116498261161e565b9050919050565b6116598161163e565b811461166457600080fd5b50565b60008135905061167681611650565b92915050565b6000819050919050565b61168f8161167c565b811461169a57600080fd5b50565b6000813590506116ac81611686565b92915050565b600080604083850312156116c9576116c8611619565b5b60006116d785828601611667565b92505060206116e88582860161169d565b9150509250929050565b60008115159050919050565b611707816116f2565b82525050565b600060208201905061172260008301846116fe565b92915050565b6117318161167c565b82525050565b600060208201905061174c6000830184611728565b92915050565b60008060006060848603121561176b5761176a611619565b5b600061177986828701611667565b935050602061178a86828701611667565b925050604061179b8682870161169d565b9150509250925092565b6117ae8161163e565b82525050565b60006020820190506117c960008301846117a5565b92915050565b6000602082840312156117e5576117e4611619565b5b60006117f384828501611667565b91505092915050565b611805816116f2565b811461181057600080fd5b50565b600081359050611822816117fc565b92915050565b60006020828403121561183e5761183d611619565b5b600061184c84828501611813565b91505092915050565b60006020828403121561186b5761186a611619565b5b60006118798482850161169d565b91505092915050565b6000806040838503121561189957611898611619565b5b60006118a785828601611667565b92505060206118b885828601611667565b9150509250929050565b7f4e487b7100000000000000000000000000000000000000000000000000000000600052602260045260246000fd5b6000600282049050600182168061190957607f821691505b6020821081141561191d5761191c6118c2565b5b50919050565b7f50726f6a656374206973206e6f74206163746976650000000000000000000000600082015250565b6000611959601583611569565b915061196482611923565b602082019050919050565b600060208201905081810360008301526119888161194c565b9050919050565b60006040820190506119a460008301856117a5565b6119b160208301846117a5565b9392505050565b6000815190506119c7816117fc565b92915050565b6000602082840312156119e3576119e2611619565b5b60006119f1848285016119b8565b91505092915050565b7f4e6f7420616c6c6f776564000000000000000000000000000000000000000000600082015250565b6000611a30600b83611569565b9150611a3b826119fa565b602082019050919050565b60006020820190508181036000830152611a5f81611a23565b9050919050565b7f496e73756666696369656e7420746f6b656e2066756e64730000000000000000600082015250565b6000611a9c601883611569565b9150611aa782611a66565b602082019050919050565b60006020820190508181036000830152611acb81611a8f565b9050919050565b7f4e487b7100000000000000000000000000000000000000000000000000000000600052601160045260246000fd5b6000611b0c8261167c565b9150611b178361167c565b925082821015611b2a57611b29611ad2565b5b828203905092915050565b6000611b408261167c565b9150611b4b8361167c565b9250827fffffffffffffffffffffffffffffffffffffffffffffffffffffffffffffffff03821115611b8057611b7f611ad2565b5b828201905092915050565b7f4f6e6c7920746f6b656e20686f6c646572732063616e206265207265696d627560008201527f7273656400000000000000000000000000000000000000000000000000000000602082015250565b6000611be7602483611569565b9150611bf282611b8b565b604082019050919050565b60006020820190508181036000830152611c1681611bda565b9050919050565b60008160011c9050919050565b6000808291508390505b6001851115611c7457808604811115611c5057611c4f611ad2565b5b6001851615611c5f5780820291505b8081029050611c6d85611c1d565b9450611c34565b94509492505050565b600082611c8d5760019050611d49565b81611c9b5760009050611d49565b8160018114611cb15760028114611cbb57611cea565b6001915050611d49565b60ff841115611ccd57611ccc611ad2565b5b8360020a915084821115611ce457611ce3611ad2565b5b50611d49565b5060208310610133831016604e8410600b8410161715611d1f5782820a905083811115611d1a57611d19611ad2565b5b611d49565b611d2c8484846001611c2a565b92509050818404811115611d4357611d42611ad2565b5b81810290505b9392505050565b6000611d5b8261167c565b9150611d668361167c565b9250611d937fffffffffffffffffffffffffffffffffffffffffffffffffffffffffffffffff8484611c7d565b905092915050565b7f4e487b7100000000000000000000000000000000000000000000000000000000600052601260045260246000fd5b6000611dd58261167c565b9150611de08361167c565b925082611df057611def611d9b565b5b828204905092915050565b6000611e068261167c565b9150611e118361167c565b9250817fffffffffffffffffffffffffffffffffffffffffffffffffffffffffffffffff0483118215151615611e4a57611e49611ad2565b5b828202905092915050565b6000606082019050611e6a60008301866117a5565b611e7760208301856117a5565b611e846040830184611728565b949350505050565b7f6f6e6c79206f776e65722063616e2063616c6c20746869732066756e6374696f60008201527f6e00000000000000000000000000000000000000000000000000000000000000602082015250565b6000611ee8602183611569565b9150611ef382611e8c565b604082019050919050565b60006020820190508181036000830152611f1781611edb565b9050919050565b7f54686520696e766573746d656e742069732062656c6f7720746865207265717560008201527f69726564206d696e696d756d0000000000000000000000000000000000000000602082015250565b6000611f7a602c83611569565b9150611f8582611f1e565b604082019050919050565b60006020820190508181036000830152611fa981611f6d565b905091905056fea2646970667358221220bfd3d0cea94842dd9c6ac3645cbd3dca5fe4fedd9d668c49453afe66fe7cda4764736f6c63430008090033",
  "immutableReferences": {},
  "source": "// SPDX-License-Identifier: MIT\npragma solidity ^0.8.9;\n\nimport \"./IERC20.sol\";\nimport \"./AbstractRegulatorService.sol\";\nimport \"./AbstractTMYToken.sol\";\n\ncontract Project is IERC20 {\n    address public owner; // The Many will be the contract owner\n    string public name; // Name of the token\n    string public symbol; // Ticker\n    uint256 public decimals = 18; // Using same standard as ETH\n    uint256 public purchaseLimit = 50 * (10**decimals); // 50 TMY tokens\n\n    uint256 public tokenPrice; // Price of 1 share (1 token) in the project\n    uint256 public totalShareholders; // Amount of token holders (shareholders)\n\n    uint256 public tokensSold; // Amount of tokens sold in the offering\n    uint256 public totalSupply; // Initial supply of shares in the project\n    mapping(address => uint256) public balanceOf; // Mapping of shareholders in the project\n    mapping(address => mapping(address => uint256)) allowed;\n\n    bool public projectCanceled = false; // Will be set to true by The Many if project fails to raise enough capital\n\n    address public regServiceContract;\n    AbstractRegulatorService regService;\n\n    address public tmyTokenContract;\n    AbstractTMYToken tmyToken;\n\n    modifier restrictedOwner() {\n        require(msg.sender == owner, \"only owner can call this function\");\n        _;\n    }\n\n    modifier isActive() {\n        require(!projectCanceled, \"Project is not active\");\n        _;\n    }\n\n    constructor(\n        string memory _name,\n        string memory _symbol,\n        uint256 _tokenPrice,\n        uint256 _totalSupply,\n        address _regServiceContract,\n        address _tmyTokenContract\n    ) {\n        owner = msg.sender;\n        name = _name;\n        symbol = _symbol;\n        tokenPrice = _tokenPrice;\n        totalSupply = _totalSupply * (10**decimals);\n\n        regServiceContract = _regServiceContract;\n        regService = AbstractRegulatorService(_regServiceContract);\n\n        tmyTokenContract = _tmyTokenContract;\n        tmyToken = AbstractTMYToken(_tmyTokenContract);\n    }\n\n    function tokensRemaining() public view returns (uint256) {\n        return totalSupply - tokensSold;\n    }\n\n    function cancelSale(bool isCanceled) public restrictedOwner {\n        projectCanceled = isCanceled;\n    }\n\n    function buy(uint256 investmentAmount) public isActive {\n        // This buy function will NOT accept the native currency (MATIC or ETH)\n        // but only TMY tokens (i.e. not marked \"payable\")\n        require(\n            investmentAmount >= purchaseLimit,\n            \"The investment is below the required minimum\"\n        ); // Check that the investment limit is met\n\n        // Calculate the amount of tokens (shares) to issue to the investor\n        uint256 tokensReceivable;\n        tokensReceivable = (investmentAmount * (10**decimals)) / tokenPrice;\n\n        // If the tokensReceivable is larger than the available supply,\n        // only the remaining supply is issued to the investor and the\n        // investmentAmount adjusted accordingly\n        if ((tokensSold + tokensReceivable) > totalSupply) {\n            tokensReceivable = totalSupply - tokensSold;\n            investmentAmount = tokensReceivable * (tokenPrice / (10**decimals));\n        }\n\n        // Transfer payment (TMY tokens) to contract owner (The Many)\n        tmyToken.transferFrom(msg.sender, owner, investmentAmount);\n\n        // Increment number of shareholders if investor is new shareholder\n        if (balanceOf[msg.sender] == 0) {\n            totalShareholders += 1;\n        }\n\n        // Transfer the tokens to the buyer\n        balanceOf[msg.sender] += tokensReceivable;\n\n        // Increase the tokens sold state variable\n        tokensSold += tokensReceivable;\n    }\n\n    function claimBack() public {\n        require(\n            balanceOf[msg.sender] != 0,\n            \"Only token holders can be reimbursed\"\n        );\n        uint256 refund;\n\n        // Calculate the amount of ether to refund\n        refund = balanceOf[msg.sender] * (tokenPrice / (10**decimals));\n\n        // Refund TMY tokens\n        tmyToken.transferFrom(owner, msg.sender, refund);\n\n        // Set token balance to zero\n        balanceOf[msg.sender] = 0;\n    }\n\n    function transfer(address receiver, uint256 amount)\n        public\n        override\n        isActive\n        returns (bool)\n    {\n        require(regService.check(msg.sender, receiver)); // Check the RegulatorService\n        require(amount <= balanceOf[msg.sender], \"Insufficient token funds\");\n\n        balanceOf[msg.sender] = balanceOf[msg.sender] - amount;\n        balanceOf[receiver] = balanceOf[receiver] + amount;\n        emit Transfer(msg.sender, receiver, amount);\n        return true;\n    }\n\n    function approve(address delegate, uint256 numTokens)\n        public\n        override\n        isActive\n        returns (bool)\n    {\n        allowed[msg.sender][delegate] = numTokens;\n        emit Approval(msg.sender, delegate, numTokens);\n        return true;\n    }\n\n    function allowance(address _owner, address delegate)\n        public\n        view\n        override\n        isActive\n        returns (uint256)\n    {\n        return allowed[_owner][delegate];\n    }\n\n    function transferFrom(\n        address _owner,\n        address buyer,\n        uint256 amount\n    ) public override isActive returns (bool) {\n        require(regService.check(_owner, buyer)); // Check the RegulatorService\n        require(amount <= allowed[_owner][msg.sender], \"Not allowed\"); // Check that the caller is allowed to make the transfer\n        require(amount <= balanceOf[_owner], \"Insufficient token funds\"); // Check for sufficient token balance\n\n        balanceOf[_owner] = balanceOf[_owner] - amount;\n        allowed[_owner][msg.sender] = allowed[_owner][msg.sender] - amount;\n        balanceOf[buyer] = balanceOf[buyer] + amount;\n        emit Transfer(_owner, buyer, amount);\n        return true;\n    }\n}\n",
  "sourcePath": "/Users/intepa/Desktop/dev/Ethereum/the-many-blockchain/contracts/ProjectContract.sol",
  "compiler": {
    "name": "solc",
    "version": "0.8.9+commit.e5eed63a.Emscripten.clang"
  },
  "schemaVersion": "3.4.3",
  "updatedAt": "2021-12-13T09:08:25.854Z",
  "networkType": "ethereum",
  "devdoc": {
    "kind": "dev",
    "methods": {},
    "version": 1
  },
  "userdoc": {
    "kind": "user",
    "methods": {},
    "version": 1
  }
}