{
  "contractName": "RegulatorService",
  "abi": [
    {
      "inputs": [],
      "stateMutability": "nonpayable",
      "type": "constructor"
    },
    {
      "anonymous": false,
      "inputs": [
        {
          "indexed": true,
          "internalType": "address",
          "name": "investor",
          "type": "address"
        },
        {
          "components": [
            {
              "internalType": "bool",
              "name": "allowSend",
              "type": "bool"
            },
            {
              "internalType": "bool",
              "name": "allowReceive",
              "type": "bool"
            }
          ],
          "indexed": true,
          "internalType": "struct RegulatorService.Permission",
          "name": "permission",
          "type": "tuple"
        }
      ],
      "name": "Allow",
      "type": "event"
    },
    {
      "inputs": [],
      "name": "owner",
      "outputs": [
        {
          "internalType": "address",
          "name": "",
          "type": "address"
        }
      ],
      "stateMutability": "view",
      "type": "function",
      "constant": true
    },
    {
      "inputs": [
        {
          "internalType": "address",
          "name": "",
          "type": "address"
        }
      ],
      "name": "permissionsOf",
      "outputs": [
        {
          "internalType": "bool",
          "name": "allowSend",
          "type": "bool"
        },
        {
          "internalType": "bool",
          "name": "allowReceive",
          "type": "bool"
        }
      ],
      "stateMutability": "view",
      "type": "function",
      "constant": true
    },
    {
      "inputs": [
        {
          "internalType": "address",
          "name": "_from",
          "type": "address"
        },
        {
          "internalType": "address",
          "name": "_to",
          "type": "address"
        }
      ],
      "name": "check",
      "outputs": [
        {
          "internalType": "bool",
          "name": "",
          "type": "bool"
        }
      ],
      "stateMutability": "view",
      "type": "function",
      "constant": true
    },
    {
      "inputs": [
        {
          "internalType": "address",
          "name": "_investor",
          "type": "address"
        },
        {
          "internalType": "bool",
          "name": "_send",
          "type": "bool"
        },
        {
          "internalType": "bool",
          "name": "_receive",
          "type": "bool"
        }
      ],
      "name": "setPermissions",
      "outputs": [
        {
          "internalType": "bool",
          "name": "success",
          "type": "bool"
        }
      ],
      "stateMutability": "nonpayable",
      "type": "function"
    }
  ],
  "bytecode": "0x608060405234801561001057600080fd5b50336000806101000a81548173ffffffffffffffffffffffffffffffffffffffff021916908373ffffffffffffffffffffffffffffffffffffffff160217905550610845806100606000396000f3fe608060405234801561001057600080fd5b506004361061004c5760003560e01c80630aa582a31461005157806380b6ce0d146100825780638da5cb5b146100b2578063b3154db0146100d0575b600080fd5b61006b600480360381019061006691906104b0565b610100565b6040516100799291906104f8565b60405180910390f35b61009c6004803603810190610097919061054d565b61013e565b6040516100a991906105a0565b60405180910390f35b6100ba6102ff565b6040516100c791906105ca565b60405180910390f35b6100ea60048036038101906100e591906105e5565b610323565b6040516100f791906105a0565b60405180910390f35b60016020528060005260406000206000915090508060000160009054906101000a900460ff16908060000160019054906101000a900460ff16905082565b60008060009054906101000a900473ffffffffffffffffffffffffffffffffffffffff1673ffffffffffffffffffffffffffffffffffffffff163373ffffffffffffffffffffffffffffffffffffffff16146101cf576040517f08c379a00000000000000000000000000000000000000000000000000000000081526004016101c6906106a8565b60405180910390fd5b82600160008673ffffffffffffffffffffffffffffffffffffffff1673ffffffffffffffffffffffffffffffffffffffff16815260200190815260200160002060000160006101000a81548160ff02191690831515021790555081600160008673ffffffffffffffffffffffffffffffffffffffff1673ffffffffffffffffffffffffffffffffffffffff16815260200190815260200160002060000160016101000a81548160ff021916908315150217905550604051806040016040528084151581526020018315158152506040516102a9919061071c565b60405180910390208473ffffffffffffffffffffffffffffffffffffffff167fc9eb9ee895d23ce6a7d0dead09f5fa62a85a5f980d8ba5fbdbdf58beb5535a5e60405160405180910390a3600190509392505050565b60008054906101000a900473ffffffffffffffffffffffffffffffffffffffff1681565b6000600160008473ffffffffffffffffffffffffffffffffffffffff1673ffffffffffffffffffffffffffffffffffffffff16815260200190815260200160002060000160009054906101000a900460ff166103b4576040517f08c379a00000000000000000000000000000000000000000000000000000000081526004016103ab90610783565b60405180910390fd5b600160008373ffffffffffffffffffffffffffffffffffffffff1673ffffffffffffffffffffffffffffffffffffffff16815260200190815260200160002060000160019054906101000a900460ff16610443576040517f08c379a000000000000000000000000000000000000000000000000000000000815260040161043a906107ef565b60405180910390fd5b6001905092915050565b600080fd5b600073ffffffffffffffffffffffffffffffffffffffff82169050919050565b600061047d82610452565b9050919050565b61048d81610472565b811461049857600080fd5b50565b6000813590506104aa81610484565b92915050565b6000602082840312156104c6576104c561044d565b5b60006104d48482850161049b565b91505092915050565b60008115159050919050565b6104f2816104dd565b82525050565b600060408201905061050d60008301856104e9565b61051a60208301846104e9565b9392505050565b61052a816104dd565b811461053557600080fd5b50565b60008135905061054781610521565b92915050565b6000806000606084860312156105665761056561044d565b5b60006105748682870161049b565b935050602061058586828701610538565b925050604061059686828701610538565b9150509250925092565b60006020820190506105b560008301846104e9565b92915050565b6105c481610472565b82525050565b60006020820190506105df60008301846105bb565b92915050565b600080604083850312156105fc576105fb61044d565b5b600061060a8582860161049b565b925050602061061b8582860161049b565b9150509250929050565b600082825260208201905092915050565b7f43616c6c6572206e6f7420616c6c6f77656420746f206368616e676520696e7660008201527f6573746f72207065726d697373696f6e73000000000000000000000000000000602082015250565b6000610692603183610625565b915061069d82610636565b604082019050919050565b600060208201905081810360008301526106c181610685565b9050919050565b6106d1816104dd565b82525050565b60006106e383836106c8565b60208301905092915050565b60008201600082015161070284826106d7565b935050602082015161071484826106d7565b935050505050565b600061072882846106ef565b60408201915081905092915050565b7f53656e646572206e6f7420617574686f72697a65640000000000000000000000600082015250565b600061076d601583610625565b915061077882610737565b602082019050919050565b6000602082019050818103600083015261079c81610760565b9050919050565b7f5265636569766572206e6f7420617574686f72697a6564000000000000000000600082015250565b60006107d9601783610625565b91506107e4826107a3565b602082019050919050565b60006020820190508181036000830152610808816107cc565b905091905056fea2646970667358221220c4a3fc956332ba79a15a2206a99a76783d451cccb1d1470d589b8fa54732eee564736f6c63430008090033",
  "immutableReferences": {},
  "source": "// SPDX-License-Identifier: MIT\npragma solidity ^0.8.9;\n\ncontract RegulatorService {\n    struct Permission {\n        bool allowSend;\n        bool allowReceive;\n    }\n\n    address public owner; // Contract owner\n    mapping(address => Permission) public permissionsOf; // Whitelist\n\n    constructor() {\n        owner = msg.sender;\n    }\n\n    function check(address _from, address _to) public view returns (bool) {\n        require(permissionsOf[_from].allowSend, \"Sender not authorized\");\n        require(permissionsOf[_to].allowReceive, \"Receiver not authorized\");\n        return true;\n    }\n\n    function setPermissions(\n        address _investor,\n        bool _send,\n        bool _receive\n    ) external returns (bool success) {\n        require(\n            msg.sender == owner,\n            \"Caller not allowed to change investor permissions\"\n        );\n        permissionsOf[_investor].allowSend = _send;\n        permissionsOf[_investor].allowReceive = _receive;\n        emit Allow(_investor, Permission(_send, _receive));\n        return true;\n    }\n\n    event Allow(address indexed investor, Permission indexed permission);\n}\n",
  "sourcePath": "/Users/intepa/Desktop/dev/Ethereum/the-many-blockchain/contracts/RegService.sol",
  "compiler": {
    "name": "solc",
    "version": "0.8.9+commit.e5eed63a.Emscripten.clang"
  },
  "schemaVersion": "3.4.3",
  "updatedAt": "2021-12-13T09:08:25.834Z",
  "networkType": "ethereum",
  "devdoc": {
    "kind": "dev",
    "methods": {},
    "version": 1
  },
  "userdoc": {
    "kind": "user",
    "methods": {},
    "version": 1
  }
}