{
  "contractName": "TMY",
  "abi": [
    {
      "inputs": [
        {
          "internalType": "address",
          "name": "_regServiceContract",
          "type": "address"
        }
      ],
      "stateMutability": "nonpayable",
      "type": "constructor"
    },
    {
      "anonymous": false,
      "inputs": [
        {
          "indexed": true,
          "internalType": "address",
          "name": "owner",
          "type": "address"
        },
        {
          "indexed": true,
          "internalType": "address",
          "name": "spender",
          "type": "address"
        },
        {
          "indexed": false,
          "internalType": "uint256",
          "name": "value",
          "type": "uint256"
        }
      ],
      "name": "Approval",
      "type": "event"
    },
    {
      "anonymous": false,
      "inputs": [
        {
          "indexed": true,
          "internalType": "address",
          "name": "from",
          "type": "address"
        },
        {
          "indexed": true,
          "internalType": "address",
          "name": "to",
          "type": "address"
        },
        {
          "indexed": false,
          "internalType": "uint256",
          "name": "value",
          "type": "uint256"
        }
      ],
      "name": "Transfer",
      "type": "event"
    },
    {
      "inputs": [
        {
          "internalType": "address",
          "name": "",
          "type": "address"
        }
      ],
      "name": "balanceOf",
      "outputs": [
        {
          "internalType": "uint256",
          "name": "",
          "type": "uint256"
        }
      ],
      "stateMutability": "view",
      "type": "function",
      "constant": true
    },
    {
      "inputs": [],
      "name": "decimals",
      "outputs": [
        {
          "internalType": "uint256",
          "name": "",
          "type": "uint256"
        }
      ],
      "stateMutability": "view",
      "type": "function",
      "constant": true
    },
    {
      "inputs": [],
      "name": "name",
      "outputs": [
        {
          "internalType": "string",
          "name": "",
          "type": "string"
        }
      ],
      "stateMutability": "view",
      "type": "function",
      "constant": true
    },
    {
      "inputs": [],
      "name": "owner",
      "outputs": [
        {
          "internalType": "address",
          "name": "",
          "type": "address"
        }
      ],
      "stateMutability": "view",
      "type": "function",
      "constant": true
    },
    {
      "inputs": [],
      "name": "regServiceContract",
      "outputs": [
        {
          "internalType": "address",
          "name": "",
          "type": "address"
        }
      ],
      "stateMutability": "view",
      "type": "function",
      "constant": true
    },
    {
      "inputs": [],
      "name": "symbol",
      "outputs": [
        {
          "internalType": "string",
          "name": "",
          "type": "string"
        }
      ],
      "stateMutability": "view",
      "type": "function",
      "constant": true
    },
    {
      "inputs": [],
      "name": "totalSupply",
      "outputs": [
        {
          "internalType": "uint256",
          "name": "",
          "type": "uint256"
        }
      ],
      "stateMutability": "view",
      "type": "function",
      "constant": true
    },
    {
      "inputs": [],
      "name": "buy",
      "outputs": [],
      "stateMutability": "payable",
      "type": "function",
      "payable": true
    },
    {
      "inputs": [
        {
          "internalType": "uint256",
          "name": "amount",
          "type": "uint256"
        }
      ],
      "name": "sell",
      "outputs": [],
      "stateMutability": "nonpayable",
      "type": "function"
    },
    {
      "inputs": [
        {
          "internalType": "uint256",
          "name": "amount",
          "type": "uint256"
        }
      ],
      "name": "mint",
      "outputs": [
        {
          "internalType": "bool",
          "name": "",
          "type": "bool"
        }
      ],
      "stateMutability": "nonpayable",
      "type": "function"
    },
    {
      "inputs": [
        {
          "internalType": "uint256",
          "name": "amount",
          "type": "uint256"
        }
      ],
      "name": "burn",
      "outputs": [
        {
          "internalType": "bool",
          "name": "",
          "type": "bool"
        }
      ],
      "stateMutability": "nonpayable",
      "type": "function"
    },
    {
      "inputs": [
        {
          "internalType": "address",
          "name": "receiver",
          "type": "address"
        },
        {
          "internalType": "uint256",
          "name": "amount",
          "type": "uint256"
        }
      ],
      "name": "transfer",
      "outputs": [
        {
          "internalType": "bool",
          "name": "",
          "type": "bool"
        }
      ],
      "stateMutability": "nonpayable",
      "type": "function"
    },
    {
      "inputs": [
        {
          "internalType": "address",
          "name": "delegate",
          "type": "address"
        },
        {
          "internalType": "uint256",
          "name": "numTokens",
          "type": "uint256"
        }
      ],
      "name": "approve",
      "outputs": [
        {
          "internalType": "bool",
          "name": "",
          "type": "bool"
        }
      ],
      "stateMutability": "nonpayable",
      "type": "function"
    },
    {
      "inputs": [
        {
          "internalType": "address",
          "name": "_owner",
          "type": "address"
        },
        {
          "internalType": "address",
          "name": "delegate",
          "type": "address"
        }
      ],
      "name": "allowance",
      "outputs": [
        {
          "internalType": "uint256",
          "name": "",
          "type": "uint256"
        }
      ],
      "stateMutability": "view",
      "type": "function",
      "constant": true
    },
    {
      "inputs": [
        {
          "internalType": "address",
          "name": "_owner",
          "type": "address"
        },
        {
          "internalType": "address",
          "name": "buyer",
          "type": "address"
        },
        {
          "internalType": "uint256",
          "name": "amount",
          "type": "uint256"
        }
      ],
      "name": "transferFrom",
      "outputs": [
        {
          "internalType": "bool",
          "name": "",
          "type": "bool"
        }
      ],
      "stateMutability": "nonpayable",
      "type": "function"
    }
  ],
  "bytecode": "0x60806040526040518060400160405280600e81526020017f546865204d616e7920546f6b656e0000000000000000000000000000000000008152506001908051906020019062000051929190620001a1565b506040518060400160405280600381526020017f544d590000000000000000000000000000000000000000000000000000000000815250600290805190602001906200009f929190620001a1565b506012600355348015620000b257600080fd5b50604051620020bf380380620020bf8339818101604052810190620000d89190620002bb565b336000806101000a81548173ffffffffffffffffffffffffffffffffffffffff021916908373ffffffffffffffffffffffffffffffffffffffff16021790555080600760006101000a81548173ffffffffffffffffffffffffffffffffffffffff021916908373ffffffffffffffffffffffffffffffffffffffff16021790555080600860006101000a81548173ffffffffffffffffffffffffffffffffffffffff021916908373ffffffffffffffffffffffffffffffffffffffff1602179055505062000352565b828054620001af906200031c565b90600052602060002090601f016020900481019282620001d357600085556200021f565b82601f10620001ee57805160ff19168380011785556200021f565b828001600101855582156200021f579182015b828111156200021e57825182559160200191906001019062000201565b5b5090506200022e919062000232565b5090565b5b808211156200024d57600081600090555060010162000233565b5090565b600080fd5b600073ffffffffffffffffffffffffffffffffffffffff82169050919050565b6000620002838262000256565b9050919050565b620002958162000276565b8114620002a157600080fd5b50565b600081519050620002b5816200028a565b92915050565b600060208284031215620002d457620002d362000251565b5b6000620002e484828501620002a4565b91505092915050565b7f4e487b7100000000000000000000000000000000000000000000000000000000600052602260045260246000fd5b600060028204905060018216806200033557607f821691505b602082108114156200034c576200034b620002ed565b5b50919050565b611d5d80620003626000396000f3fe6080604052600436106100e85760003560e01c80638da5cb5b1161008a578063a9059cbb11610059578063a9059cbb146102ff578063dd62ed3e1461033c578063e4849b3214610379578063f6545488146103a2576100e8565b80638da5cb5b1461026257806395d89b411461028d578063a0712d68146102b8578063a6f2ae3a146102f5576100e8565b806323b872dd116100c657806323b872dd14610180578063313ce567146101bd57806342966c68146101e857806370a0823114610225576100e8565b806306fdde03146100ed578063095ea7b31461011857806318160ddd14610155575b600080fd5b3480156100f957600080fd5b506101026103cd565b60405161010f9190611577565b60405180910390f35b34801561012457600080fd5b5061013f600480360381019061013a9190611632565b61045b565b60405161014c919061168d565b60405180910390f35b34801561016157600080fd5b5061016a6105cf565b60405161017791906116b7565b60405180910390f35b34801561018c57600080fd5b506101a760048036038101906101a291906116d2565b6105d5565b6040516101b4919061168d565b60405180910390f35b3480156101c957600080fd5b506101d2610a62565b6040516101df91906116b7565b60405180910390f35b3480156101f457600080fd5b5061020f600480360381019061020a9190611725565b610a68565b60405161021c919061168d565b60405180910390f35b34801561023157600080fd5b5061024c60048036038101906102479190611752565b610c26565b60405161025991906116b7565b60405180910390f35b34801561026e57600080fd5b50610277610c3e565b604051610284919061178e565b60405180910390f35b34801561029957600080fd5b506102a2610c62565b6040516102af9190611577565b60405180910390f35b3480156102c457600080fd5b506102df60048036038101906102da9190611725565b610cf0565b6040516102ec919061168d565b60405180910390f35b6102fd610e2c565b005b34801561030b57600080fd5b5061032660048036038101906103219190611632565b610fa8565b604051610333919061168d565b60405180910390f35b34801561034857600080fd5b50610363600480360381019061035e91906117a9565b61126d565b60405161037091906116b7565b60405180910390f35b34801561038557600080fd5b506103a0600480360381019061039b9190611725565b6112f4565b005b3480156103ae57600080fd5b506103b76114b8565b6040516103c4919061178e565b60405180910390f35b600180546103da90611818565b80601f016020809104026020016040519081016040528092919081815260200182805461040690611818565b80156104535780601f1061042857610100808354040283529160200191610453565b820191906000526020600020905b81548152906001019060200180831161043657829003601f168201915b505050505081565b6000600560003373ffffffffffffffffffffffffffffffffffffffff1673ffffffffffffffffffffffffffffffffffffffff168152602001908152602001600020548211156104df576040517f08c379a00000000000000000000000000000000000000000000000000000000081526004016104d690611896565b60405180910390fd5b81600660003373ffffffffffffffffffffffffffffffffffffffff1673ffffffffffffffffffffffffffffffffffffffff16815260200190815260200160002060008573ffffffffffffffffffffffffffffffffffffffff1673ffffffffffffffffffffffffffffffffffffffff168152602001908152602001600020819055508273ffffffffffffffffffffffffffffffffffffffff163373ffffffffffffffffffffffffffffffffffffffff167f8c5be1e5ebec7d5bd14f71427d1e84f3dd0314c0f7b2291e5b200ac8c7c3b925846040516105bd91906116b7565b60405180910390a36001905092915050565b60045481565b6000600860009054906101000a900473ffffffffffffffffffffffffffffffffffffffff1673ffffffffffffffffffffffffffffffffffffffff1663b3154db085856040518363ffffffff1660e01b81526004016106349291906118b6565b60206040518083038186803b15801561064c57600080fd5b505afa158015610660573d6000803e3d6000fd5b505050506040513d601f19601f82011682018060405250810190610684919061190b565b61068d57600080fd5b600660008573ffffffffffffffffffffffffffffffffffffffff1673ffffffffffffffffffffffffffffffffffffffff16815260200190815260200160002060003373ffffffffffffffffffffffffffffffffffffffff1673ffffffffffffffffffffffffffffffffffffffff1681526020019081526020016000205482111561074c576040517f08c379a000000000000000000000000000000000000000000000000000000000815260040161074390611984565b60405180910390fd5b600560008573ffffffffffffffffffffffffffffffffffffffff1673ffffffffffffffffffffffffffffffffffffffff168152602001908152602001600020548211156107ce576040517f08c379a00000000000000000000000000000000000000000000000000000000081526004016107c590611896565b60405180910390fd5b81600560008673ffffffffffffffffffffffffffffffffffffffff1673ffffffffffffffffffffffffffffffffffffffff1681526020019081526020016000205461081991906119d3565b600560008673ffffffffffffffffffffffffffffffffffffffff1673ffffffffffffffffffffffffffffffffffffffff1681526020019081526020016000208190555081600660008673ffffffffffffffffffffffffffffffffffffffff1673ffffffffffffffffffffffffffffffffffffffff16815260200190815260200160002060003373ffffffffffffffffffffffffffffffffffffffff1673ffffffffffffffffffffffffffffffffffffffff168152602001908152602001600020546108e491906119d3565b600660008673ffffffffffffffffffffffffffffffffffffffff1673ffffffffffffffffffffffffffffffffffffffff16815260200190815260200160002060003373ffffffffffffffffffffffffffffffffffffffff1673ffffffffffffffffffffffffffffffffffffffff1681526020019081526020016000208190555081600560008573ffffffffffffffffffffffffffffffffffffffff1673ffffffffffffffffffffffffffffffffffffffff168152602001908152602001600020546109af9190611a07565b600560008573ffffffffffffffffffffffffffffffffffffffff1673ffffffffffffffffffffffffffffffffffffffff168152602001908152602001600020819055508273ffffffffffffffffffffffffffffffffffffffff168473ffffffffffffffffffffffffffffffffffffffff167fddf252ad1be2c89b69c2b068fc378daa952ba7f163c4a11628f55a4df523b3ef84604051610a4f91906116b7565b60405180910390a3600190509392505050565b60035481565b60008060009054906101000a900473ffffffffffffffffffffffffffffffffffffffff1673ffffffffffffffffffffffffffffffffffffffff163373ffffffffffffffffffffffffffffffffffffffff1614610af9576040517f08c379a0000000000000000000000000000000000000000000000000000000008152600401610af090611acf565b60405180910390fd5b600560003373ffffffffffffffffffffffffffffffffffffffff1673ffffffffffffffffffffffffffffffffffffffff16815260200190815260200160002054821115610b7b576040517f08c379a0000000000000000000000000000000000000000000000000000000008152600401610b7290611896565b60405180910390fd5b81600560003373ffffffffffffffffffffffffffffffffffffffff1673ffffffffffffffffffffffffffffffffffffffff16815260200190815260200160002054610bc691906119d3565b600560003373ffffffffffffffffffffffffffffffffffffffff1673ffffffffffffffffffffffffffffffffffffffff1681526020019081526020016000208190555081600454610c1791906119d3565b60048190555060019050919050565b60056020528060005260406000206000915090505481565b60008054906101000a900473ffffffffffffffffffffffffffffffffffffffff1681565b60028054610c6f90611818565b80601f0160208091040260200160405190810160405280929190818152602001828054610c9b90611818565b8015610ce85780601f10610cbd57610100808354040283529160200191610ce8565b820191906000526020600020905b815481529060010190602001808311610ccb57829003601f168201915b505050505081565b60008060009054906101000a900473ffffffffffffffffffffffffffffffffffffffff1673ffffffffffffffffffffffffffffffffffffffff163373ffffffffffffffffffffffffffffffffffffffff1614610d81576040517f08c379a0000000000000000000000000000000000000000000000000000000008152600401610d7890611acf565b60405180910390fd5b81600560003373ffffffffffffffffffffffffffffffffffffffff1673ffffffffffffffffffffffffffffffffffffffff16815260200190815260200160002054610dcc9190611a07565b600560003373ffffffffffffffffffffffffffffffffffffffff1673ffffffffffffffffffffffffffffffffffffffff1681526020019081526020016000208190555081600454610e1d9190611a07565b60048190555060019050919050565b600860009054906101000a900473ffffffffffffffffffffffffffffffffffffffff1673ffffffffffffffffffffffffffffffffffffffff1663b3154db060008054906101000a900473ffffffffffffffffffffffffffffffffffffffff16336040518363ffffffff1660e01b8152600401610ea99291906118b6565b60206040518083038186803b158015610ec157600080fd5b505afa158015610ed5573d6000803e3d6000fd5b505050506040513d601f19601f82011682018060405250810190610ef9919061190b565b610f0257600080fd5b60008065f07a05852de0905080600354600a610f1e9190611c22565b34610f299190611c6d565b610f339190611cf6565b915081600560003373ffffffffffffffffffffffffffffffffffffffff1673ffffffffffffffffffffffffffffffffffffffff1681526020019081526020016000206000828254610f849190611a07565b925050819055508160046000828254610f9d9190611a07565b925050819055505050565b6000600860009054906101000a900473ffffffffffffffffffffffffffffffffffffffff1673ffffffffffffffffffffffffffffffffffffffff1663b3154db033856040518363ffffffff1660e01b81526004016110079291906118b6565b60206040518083038186803b15801561101f57600080fd5b505afa158015611033573d6000803e3d6000fd5b505050506040513d601f19601f82011682018060405250810190611057919061190b565b61106057600080fd5b600560003373ffffffffffffffffffffffffffffffffffffffff1673ffffffffffffffffffffffffffffffffffffffff168152602001908152602001600020548211156110e2576040517f08c379a00000000000000000000000000000000000000000000000000000000081526004016110d990611896565b60405180910390fd5b81600560003373ffffffffffffffffffffffffffffffffffffffff1673ffffffffffffffffffffffffffffffffffffffff1681526020019081526020016000205461112d91906119d3565b600560003373ffffffffffffffffffffffffffffffffffffffff1673ffffffffffffffffffffffffffffffffffffffff1681526020019081526020016000208190555081600560008573ffffffffffffffffffffffffffffffffffffffff1673ffffffffffffffffffffffffffffffffffffffff168152602001908152602001600020546111bb9190611a07565b600560008573ffffffffffffffffffffffffffffffffffffffff1673ffffffffffffffffffffffffffffffffffffffff168152602001908152602001600020819055508273ffffffffffffffffffffffffffffffffffffffff163373ffffffffffffffffffffffffffffffffffffffff167fddf252ad1be2c89b69c2b068fc378daa952ba7f163c4a11628f55a4df523b3ef8460405161125b91906116b7565b60405180910390a36001905092915050565b6000600660008473ffffffffffffffffffffffffffffffffffffffff1673ffffffffffffffffffffffffffffffffffffffff16815260200190815260200160002060008373ffffffffffffffffffffffffffffffffffffffff1673ffffffffffffffffffffffffffffffffffffffff16815260200190815260200160002054905092915050565b600860009054906101000a900473ffffffffffffffffffffffffffffffffffffffff1673ffffffffffffffffffffffffffffffffffffffff1663b3154db03360008054906101000a900473ffffffffffffffffffffffffffffffffffffffff166040518363ffffffff1660e01b81526004016113719291906118b6565b60206040518083038186803b15801561138957600080fd5b505afa15801561139d573d6000803e3d6000fd5b505050506040513d601f19601f820116820180604052508101906113c1919061190b565b6113ca57600080fd5b60008065f07a05852de09050600354600a6113e59190611c22565b83826113f19190611c6d565b6113fb9190611cf6565b915082600560003373ffffffffffffffffffffffffffffffffffffffff1673ffffffffffffffffffffffffffffffffffffffff168152602001908152602001600020600082825461144c91906119d3565b92505081905550826004600082825461146591906119d3565b925050819055503373ffffffffffffffffffffffffffffffffffffffff166108fc839081150290604051600060405180830381858888f193505050501580156114b2573d6000803e3d6000fd5b50505050565b600760009054906101000a900473ffffffffffffffffffffffffffffffffffffffff1681565b600081519050919050565b600082825260208201905092915050565b60005b838110156115185780820151818401526020810190506114fd565b83811115611527576000848401525b50505050565b6000601f19601f8301169050919050565b6000611549826114de565b61155381856114e9565b93506115638185602086016114fa565b61156c8161152d565b840191505092915050565b60006020820190508181036000830152611591818461153e565b905092915050565b600080fd5b600073ffffffffffffffffffffffffffffffffffffffff82169050919050565b60006115c98261159e565b9050919050565b6115d9816115be565b81146115e457600080fd5b50565b6000813590506115f6816115d0565b92915050565b6000819050919050565b61160f816115fc565b811461161a57600080fd5b50565b60008135905061162c81611606565b92915050565b6000806040838503121561164957611648611599565b5b6000611657858286016115e7565b92505060206116688582860161161d565b9150509250929050565b60008115159050919050565b61168781611672565b82525050565b60006020820190506116a2600083018461167e565b92915050565b6116b1816115fc565b82525050565b60006020820190506116cc60008301846116a8565b92915050565b6000806000606084860312156116eb576116ea611599565b5b60006116f9868287016115e7565b935050602061170a868287016115e7565b925050604061171b8682870161161d565b9150509250925092565b60006020828403121561173b5761173a611599565b5b60006117498482850161161d565b91505092915050565b60006020828403121561176857611767611599565b5b6000611776848285016115e7565b91505092915050565b611788816115be565b82525050565b60006020820190506117a3600083018461177f565b92915050565b600080604083850312156117c0576117bf611599565b5b60006117ce858286016115e7565b92505060206117df858286016115e7565b9150509250929050565b7f4e487b7100000000000000000000000000000000000000000000000000000000600052602260045260246000fd5b6000600282049050600182168061183057607f821691505b60208210811415611844576118436117e9565b5b50919050565b7f496e73756666696369656e7420746f6b656e2066756e64730000000000000000600082015250565b60006118806018836114e9565b915061188b8261184a565b602082019050919050565b600060208201905081810360008301526118af81611873565b9050919050565b60006040820190506118cb600083018561177f565b6118d8602083018461177f565b9392505050565b6118e881611672565b81146118f357600080fd5b50565b600081519050611905816118df565b92915050565b60006020828403121561192157611920611599565b5b600061192f848285016118f6565b91505092915050565b7f4e6f7420616c6c6f776564000000000000000000000000000000000000000000600082015250565b600061196e600b836114e9565b915061197982611938565b602082019050919050565b6000602082019050818103600083015261199d81611961565b9050919050565b7f4e487b7100000000000000000000000000000000000000000000000000000000600052601160045260246000fd5b60006119de826115fc565b91506119e9836115fc565b9250828210156119fc576119fb6119a4565b5b828203905092915050565b6000611a12826115fc565b9150611a1d836115fc565b9250827fffffffffffffffffffffffffffffffffffffffffffffffffffffffffffffffff03821115611a5257611a516119a4565b5b828201905092915050565b7f6f6e6c79206f776e65722063616e2063616c6c20746869732066756e6374696f60008201527f6e00000000000000000000000000000000000000000000000000000000000000602082015250565b6000611ab96021836114e9565b9150611ac482611a5d565b604082019050919050565b60006020820190508181036000830152611ae881611aac565b9050919050565b60008160011c9050919050565b6000808291508390505b6001851115611b4657808604811115611b2257611b216119a4565b5b6001851615611b315780820291505b8081029050611b3f85611aef565b9450611b06565b94509492505050565b600082611b5f5760019050611c1b565b81611b6d5760009050611c1b565b8160018114611b835760028114611b8d57611bbc565b6001915050611c1b565b60ff841115611b9f57611b9e6119a4565b5b8360020a915084821115611bb657611bb56119a4565b5b50611c1b565b5060208310610133831016604e8410600b8410161715611bf15782820a905083811115611bec57611beb6119a4565b5b611c1b565b611bfe8484846001611afc565b92509050818404811115611c1557611c146119a4565b5b81810290505b9392505050565b6000611c2d826115fc565b9150611c38836115fc565b9250611c657fffffffffffffffffffffffffffffffffffffffffffffffffffffffffffffffff8484611b4f565b905092915050565b6000611c78826115fc565b9150611c83836115fc565b9250817fffffffffffffffffffffffffffffffffffffffffffffffffffffffffffffffff0483118215151615611cbc57611cbb6119a4565b5b828202905092915050565b7f4e487b7100000000000000000000000000000000000000000000000000000000600052601260045260246000fd5b6000611d01826115fc565b9150611d0c836115fc565b925082611d1c57611d1b611cc7565b5b82820490509291505056fea26469706673582212206cc8919d47470ef6dda0c68336f8a11a7b568c64610c8eeb62e57d054656083664736f6c63430008090033",
  "immutableReferences": {},
  "source": "// SPDX-License-Identifier: MIT\npragma solidity ^0.8.9;\n\nimport \"./IERC20.sol\";\nimport \"./AbstractRegulatorService.sol\";\n\ncontract TMY is IERC20 {\n    address public owner; // The Many will be the contract owner\n    string public name = \"The Many Token\";\n    string public symbol = \"TMY\"; // Ticker\n    uint256 public decimals = 18; // Using same standard as ETH\n    uint256 public totalSupply;\n\n    // ERC-20 getters\n    mapping(address => uint256) public balanceOf;\n    mapping(address => mapping(address => uint256)) allowed;\n\n    address public regServiceContract;\n    AbstractRegulatorService regService;\n\n    modifier restrictedOwner() {\n        require(msg.sender == owner, \"only owner can call this function\");\n        _;\n    }\n\n    constructor(address _regServiceContract) {\n        owner = msg.sender;\n        regServiceContract = _regServiceContract;\n        regService = AbstractRegulatorService(_regServiceContract);\n    }\n\n    function buy() public payable {\n        require(regService.check(owner, msg.sender)); // Check the RegulatorService\n        uint256 tokensReceivable;\n        uint256 exchangeRate = 264406869290464; // Call the Chainlink contract here to get the latest rate at the time the function is called\n        tokensReceivable = (msg.value * (10**decimals)) / exchangeRate;\n\n        // Mint tokens to the buyer\n        balanceOf[msg.sender] += tokensReceivable;\n\n        // Increase the supply state\n        totalSupply += tokensReceivable;\n    }\n\n    function sell(uint256 amount) public {\n        require(regService.check(msg.sender, owner)); // Check the RegulatorService\n        uint256 ethReceivable;\n        uint256 exchangeRate = 264406869290464; // Call the Chainlink contract here to get the latest rate at the time the function is called\n        ethReceivable = (exchangeRate * amount) / 10**decimals;\n\n        // Burn tokens from buyer\n        balanceOf[msg.sender] -= amount;\n\n        // Decrease the supply state\n        totalSupply -= amount;\n\n        // Send ether to sender\n        payable(msg.sender).transfer(ethReceivable);\n    }\n\n    function mint(uint256 amount) public restrictedOwner returns (bool) {\n        // Mint new tokens (for testing purposes)\n        // Should only be callable by contract owner\n        balanceOf[msg.sender] = balanceOf[msg.sender] + amount;\n        totalSupply = totalSupply + amount;\n        return true;\n    }\n\n    function burn(uint256 amount) public restrictedOwner returns (bool) {\n        // Burn tokens (for testing purposes)\n        // Should only be callable by contract owner\n        require(amount <= balanceOf[msg.sender], \"Insufficient token funds\");\n        balanceOf[msg.sender] = balanceOf[msg.sender] - amount;\n        totalSupply = totalSupply - amount;\n        return true;\n    }\n\n    function transfer(address receiver, uint256 amount)\n        public\n        override\n        returns (bool)\n    {\n        require(regService.check(msg.sender, receiver)); // Check the RegulatorService\n        require(amount <= balanceOf[msg.sender], \"Insufficient token funds\");\n\n        balanceOf[msg.sender] = balanceOf[msg.sender] - amount;\n        balanceOf[receiver] = balanceOf[receiver] + amount;\n        emit Transfer(msg.sender, receiver, amount);\n        return true;\n    }\n\n    function approve(address delegate, uint256 numTokens)\n        public\n        override\n        returns (bool)\n    {\n        require(numTokens <= balanceOf[msg.sender], \"Insufficient token funds\");\n        allowed[msg.sender][delegate] = numTokens;\n        emit Approval(msg.sender, delegate, numTokens);\n        return true;\n    }\n\n    function allowance(address _owner, address delegate)\n        public\n        view\n        override\n        returns (uint256)\n    {\n        return allowed[_owner][delegate];\n    }\n\n    function transferFrom(\n        address _owner,\n        address buyer,\n        uint256 amount\n    ) public override returns (bool) {\n        require(regService.check(_owner, buyer)); // Check the RegulatorService\n        require(amount <= allowed[_owner][msg.sender], \"Not allowed\"); // Check that the caller is allowed to make the transfer\n        require(amount <= balanceOf[_owner], \"Insufficient token funds\"); // Check for sufficient token balance\n\n        balanceOf[_owner] = balanceOf[_owner] - amount;\n        allowed[_owner][msg.sender] = allowed[_owner][msg.sender] - amount;\n        balanceOf[buyer] = balanceOf[buyer] + amount;\n        emit Transfer(_owner, buyer, amount);\n        return true;\n    }\n}\n",
  "sourcePath": "/Users/intepa/Desktop/dev/Ethereum/the-many-blockchain/contracts/TMY.sol",
  "compiler": {
    "name": "solc",
    "version": "0.8.9+commit.e5eed63a.Emscripten.clang"
  },
  "schemaVersion": "3.4.3",
  "updatedAt": "2021-12-13T09:08:25.843Z",
  "networkType": "ethereum",
  "devdoc": {
    "kind": "dev",
    "methods": {},
    "version": 1
  },
  "userdoc": {
    "kind": "user",
    "methods": {},
    "version": 1
  }
}